:1000000001308A0004280000FF238316900000308E
:100010008A00E52900308316850083123708B9006D
:10002000B909390885006400A630A000A00B162885
:1000300037088316850064001D281E2883120508D2
:10004000370503192528003026280130003A031906
:100050002C280030A100462864001530A000A00B19
:100060002F280508370503193728003038280130B4
:10007000A10038102118381464004F30A000A00BE4
:100080003F280000003038180130A100080001307E
:10009000B9003908083C031CB9280310B80C00301B
:1000A00003180130BA003708BB003A08BC00003022
:1000B0008316850083123B08BD00BD093D088500FD
:1000C00064000230A000A00B63286628BC08031956
:1000D0008328003083168500FF308312850064007A
:1000E0000230A000A00B7228752805083B050319F3
:1000F0007B2800307C280130003A03198228003028
:10010000A100B1289F2800308316850083123B0888
:10011000BD00BD093D08850064000230A000A00BB1
:100120008F28922805083B05031D98280030992840
:100130000130003A03199F280030A100B128640063
:100140001030A000A00BA228003083168500FF30DD
:100150008312850064001030A000A00BAD28013090
:10016000A100A108031DB7280030A100BB28B90ACF
:1001700049280130A10008000130B8003808083CC7
:10018000031CF3283708BA00003083168500831259
:100190003A08BC00BC093C08850064003A08831694
:1001A00085006400D328D428831205083A05031D6E
:1001B000DB280030DC280130A1003B1021183B1463
:1001C00064001330A000A00BE328000000303B18AF
:1001D0000130A100A108031DEF280310F02803142B
:1001E000B90CB80ABE283908A10008003408B500C7
:1001F00000308316850083123508B600B60936082C
:1002000085006400A630A000A00B042935088316E1
:10021000850064000B290C2983123508B7000A20D9
:10022000A10803190D293408B700CC30B8004720C5
:100230003408B7004E30B80047203408B700033008
:10024000B80047203408B7000430B800472034080D
:10025000B7001F30B80047203408B7000A20340820
:10026000B700CC30B80047203408B700BE30B80023
:1002700047203408B700BC203408B700BC2034083D
:10028000B700BC2008003730840000080319592942
:100290000130A100BF30A0006400A00B4C29A10BCD
:1002A0004A294A30A000A00B532900006400800BAB
:1002B00048290800B5013408350203186929871652
:1002C0004B30B700432187124B30B7004321B50AAA
:1002D0005B290800B5013408350203188129871607
:1002E0000430B600C830B7004321B60B722987121C
:1002F0000430B600C830B7004321B60B7A29B50ADE
:100300006B291430B600FA30B7004321B60B8329AD
:100310006A292A2A3408B7000A20A108031D942953
:100320000030A100A200BF293408B700CC30B800CB
:1003300047203408B7004430B80047206430B70085
:1003400043213408B7000A203408B700CC30B80085
:1003500047203408B700BE30B80047203408B70043
:10036000BC202108B5003408B700BC202108B60025
:100370003408B700BC203508A1003608A2000800E8
:10038000A101A201A001A3013B08031DCA293A084B
:100390000319E4291030BC000310B80DB90DA00DED
:1003A000A30D3B082302031DD7293A082002031C92
:1003B000E0293A08A002031CA3033B08A30203148C
:1003C000A10DA20DBC0BCC299E2A03081F39830066
:1003D0001F130030831691000730831299000230FA
:1003E000AA00D030A9000430AC001030AB00AE0140
:1003F0003030AD00B001AF01311000308316850000
:10040000C0308700DF3083128700043083169500E8
:1004100081138312B1101030B7000A20A10803190C
:10042000182A1030B400F620B1140130B4005A215B
:100430002030B7000A20A1080319252A2030B40073
:10044000F620B1140230B4005A21B1182A2A033020
:10045000B4006A291030B4008A212208A6002108BD
:10046000A5002030B4008A212208A8002108A70096
:1004700026082802031C462A031D422A27082502B3
:100480000318462A2808A6002708A500C030B20095
:10049000A61B632A311C4E2A2D084F2A0030290240
:1004A000A0002A08A3000030031C0130A30220088A
:1004B000A10026082302031C682A031D632A2108C1
:1004C00025020318682AB001AF0131103216B92A8B
:1004D00026082A02031C752A031D722A29082502F0
:1004E0000318752AB001AF01A22A29082502B40019
:1004F0002608B5002A08031C2A0FB502B40DB50D55
:10050000B40DB50DB40DB50DB40DB50DF030B40589
:1005100029082B02A0002C08A3002A08031C2A0F7C
:10052000A3022008B6002308B7003508B900340834
:10053000B8002308BB002008BA00C0292208B00078
:100540002108AF00B008031DA92A2F080F3C03188B
:10055000AC2AB0010F30AF002F08B400B409300846
:10056000B500B50934080F39A000A3012008B20472
:100570003114320887008716C830B700432187122C
:100580000230B400C830B7004321B40BC22AB30113
:1005900033080F3C031CDF2AB008031DD32A2F08A1
:1005A00033020318D52A8716D62A87124130B7009E
:1005B000432187124130B7004321B30AC82A2A2AAF
:0205C0006300D6
:064200004500650003000B
:02400E00E411BB
:00000001FF
;PIC16F676
;CRC=7B32  CREATED="13-Бер-25 16:16"
